{
  "contractName": "TournamentScores",
  "abi": [
    {
      "inputs": [],
      "stateMutability": "nonpayable",
      "type": "constructor"
    },
    {
      "anonymous": false,
      "inputs": [
        {
          "indexed": true,
          "internalType": "uint256",
          "name": "matchId",
          "type": "uint256"
        },
        {
          "indexed": true,
          "internalType": "uint256",
          "name": "tournamentId",
          "type": "uint256"
        },
        {
          "indexed": true,
          "internalType": "address",
          "name": "winner",
          "type": "address"
        },
        {
          "indexed": false,
          "internalType": "address",
          "name": "player1",
          "type": "address"
        },
        {
          "indexed": false,
          "internalType": "address",
          "name": "player2",
          "type": "address"
        },
        {
          "indexed": false,
          "internalType": "uint256",
          "name": "player1Score",
          "type": "uint256"
        },
        {
          "indexed": false,
          "internalType": "uint256",
          "name": "player2Score",
          "type": "uint256"
        }
      ],
      "name": "MatchRecorded",
      "type": "event"
    },
    {
      "anonymous": false,
      "inputs": [
        {
          "indexed": true,
          "internalType": "uint256",
          "name": "tournamentId",
          "type": "uint256"
        },
        {
          "indexed": false,
          "internalType": "address",
          "name": "participant",
          "type": "address"
        }
      ],
      "name": "ParticipantAdded",
      "type": "event"
    },
    {
      "anonymous": false,
      "inputs": [
        {
          "indexed": true,
          "internalType": "uint256",
          "name": "tournamentId",
          "type": "uint256"
        },
        {
          "indexed": false,
          "internalType": "string",
          "name": "name",
          "type": "string"
        },
        {
          "indexed": false,
          "internalType": "uint256",
          "name": "startTime",
          "type": "uint256"
        }
      ],
      "name": "TournamentCreated",
      "type": "event"
    },
    {
      "anonymous": false,
      "inputs": [
        {
          "indexed": true,
          "internalType": "uint256",
          "name": "tournamentId",
          "type": "uint256"
        },
        {
          "indexed": false,
          "internalType": "uint256",
          "name": "endTime",
          "type": "uint256"
        }
      ],
      "name": "TournamentEnded",
      "type": "event"
    },
    {
      "inputs": [],
      "name": "matchCounter",
      "outputs": [
        {
          "internalType": "uint256",
          "name": "",
          "type": "uint256"
        }
      ],
      "stateMutability": "view",
      "type": "function"
    },
    {
      "inputs": [
        {
          "internalType": "uint256",
          "name": "",
          "type": "uint256"
        }
      ],
      "name": "matches",
      "outputs": [
        {
          "internalType": "uint256",
          "name": "matchId",
          "type": "uint256"
        },
        {
          "internalType": "uint256",
          "name": "tournamentId",
          "type": "uint256"
        },
        {
          "internalType": "address",
          "name": "player1",
          "type": "address"
        },
        {
          "internalType": "address",
          "name": "player2",
          "type": "address"
        },
        {
          "internalType": "string",
          "name": "player1Name",
          "type": "string"
        },
        {
          "internalType": "string",
          "name": "player2Name",
          "type": "string"
        },
        {
          "internalType": "uint256",
          "name": "player1Score",
          "type": "uint256"
        },
        {
          "internalType": "uint256",
          "name": "player2Score",
          "type": "uint256"
        },
        {
          "internalType": "address",
          "name": "winner",
          "type": "address"
        },
        {
          "internalType": "uint256",
          "name": "timestamp",
          "type": "uint256"
        },
        {
          "internalType": "bool",
          "name": "isFinalized",
          "type": "bool"
        }
      ],
      "stateMutability": "view",
      "type": "function"
    },
    {
      "inputs": [],
      "name": "owner",
      "outputs": [
        {
          "internalType": "address",
          "name": "",
          "type": "address"
        }
      ],
      "stateMutability": "view",
      "type": "function"
    },
    {
      "inputs": [
        {
          "internalType": "address",
          "name": "",
          "type": "address"
        },
        {
          "internalType": "uint256",
          "name": "",
          "type": "uint256"
        }
      ],
      "name": "playerMatches",
      "outputs": [
        {
          "internalType": "uint256",
          "name": "",
          "type": "uint256"
        }
      ],
      "stateMutability": "view",
      "type": "function"
    },
    {
      "inputs": [
        {
          "internalType": "address",
          "name": "",
          "type": "address"
        },
        {
          "internalType": "uint256",
          "name": "",
          "type": "uint256"
        }
      ],
      "name": "playerTournamentScore",
      "outputs": [
        {
          "internalType": "uint256",
          "name": "",
          "type": "uint256"
        }
      ],
      "stateMutability": "view",
      "type": "function"
    },
    {
      "inputs": [],
      "name": "tournamentCounter",
      "outputs": [
        {
          "internalType": "uint256",
          "name": "",
          "type": "uint256"
        }
      ],
      "stateMutability": "view",
      "type": "function"
    },
    {
      "inputs": [
        {
          "internalType": "uint256",
          "name": "",
          "type": "uint256"
        },
        {
          "internalType": "uint256",
          "name": "",
          "type": "uint256"
        }
      ],
      "name": "tournamentMatches",
      "outputs": [
        {
          "internalType": "uint256",
          "name": "",
          "type": "uint256"
        }
      ],
      "stateMutability": "view",
      "type": "function"
    },
    {
      "inputs": [
        {
          "internalType": "uint256",
          "name": "",
          "type": "uint256"
        }
      ],
      "name": "tournaments",
      "outputs": [
        {
          "internalType": "uint256",
          "name": "tournamentId",
          "type": "uint256"
        },
        {
          "internalType": "string",
          "name": "tournamentName",
          "type": "string"
        },
        {
          "internalType": "uint256",
          "name": "startTime",
          "type": "uint256"
        },
        {
          "internalType": "uint256",
          "name": "endTime",
          "type": "uint256"
        },
        {
          "internalType": "bool",
          "name": "isActive",
          "type": "bool"
        },
        {
          "internalType": "uint256",
          "name": "totalMatches",
          "type": "uint256"
        }
      ],
      "stateMutability": "view",
      "type": "function"
    },
    {
      "inputs": [
        {
          "internalType": "string",
          "name": "_name",
          "type": "string"
        }
      ],
      "name": "createTournament",
      "outputs": [
        {
          "internalType": "uint256",
          "name": "",
          "type": "uint256"
        }
      ],
      "stateMutability": "nonpayable",
      "type": "function"
    },
    {
      "inputs": [
        {
          "internalType": "uint256",
          "name": "_tournamentId",
          "type": "uint256"
        },
        {
          "internalType": "address",
          "name": "_participant",
          "type": "address"
        }
      ],
      "name": "addParticipant",
      "outputs": [],
      "stateMutability": "nonpayable",
      "type": "function"
    },
    {
      "inputs": [
        {
          "internalType": "uint256",
          "name": "_tournamentId",
          "type": "uint256"
        },
        {
          "internalType": "address",
          "name": "_player1",
          "type": "address"
        },
        {
          "internalType": "address",
          "name": "_player2",
          "type": "address"
        },
        {
          "internalType": "string",
          "name": "_player1Name",
          "type": "string"
        },
        {
          "internalType": "string",
          "name": "_player2Name",
          "type": "string"
        },
        {
          "internalType": "uint256",
          "name": "_player1Score",
          "type": "uint256"
        },
        {
          "internalType": "uint256",
          "name": "_player2Score",
          "type": "uint256"
        }
      ],
      "name": "recordMatch",
      "outputs": [
        {
          "internalType": "uint256",
          "name": "",
          "type": "uint256"
        }
      ],
      "stateMutability": "nonpayable",
      "type": "function"
    },
    {
      "inputs": [
        {
          "internalType": "uint256",
          "name": "_tournamentId",
          "type": "uint256"
        }
      ],
      "name": "endTournament",
      "outputs": [],
      "stateMutability": "nonpayable",
      "type": "function"
    },
    {
      "inputs": [
        {
          "internalType": "uint256",
          "name": "_matchId",
          "type": "uint256"
        }
      ],
      "name": "getMatch",
      "outputs": [
        {
          "components": [
            {
              "internalType": "uint256",
              "name": "matchId",
              "type": "uint256"
            },
            {
              "internalType": "uint256",
              "name": "tournamentId",
              "type": "uint256"
            },
            {
              "internalType": "address",
              "name": "player1",
              "type": "address"
            },
            {
              "internalType": "address",
              "name": "player2",
              "type": "address"
            },
            {
              "internalType": "string",
              "name": "player1Name",
              "type": "string"
            },
            {
              "internalType": "string",
              "name": "player2Name",
              "type": "string"
            },
            {
              "internalType": "uint256",
              "name": "player1Score",
              "type": "uint256"
            },
            {
              "internalType": "uint256",
              "name": "player2Score",
              "type": "uint256"
            },
            {
              "internalType": "address",
              "name": "winner",
              "type": "address"
            },
            {
              "internalType": "uint256",
              "name": "timestamp",
              "type": "uint256"
            },
            {
              "internalType": "bool",
              "name": "isFinalized",
              "type": "bool"
            }
          ],
          "internalType": "struct TournamentScores.Match",
          "name": "",
          "type": "tuple"
        }
      ],
      "stateMutability": "view",
      "type": "function"
    },
    {
      "inputs": [
        {
          "internalType": "uint256",
          "name": "_tournamentId",
          "type": "uint256"
        }
      ],
      "name": "getTournament",
      "outputs": [
        {
          "components": [
            {
              "internalType": "uint256",
              "name": "tournamentId",
              "type": "uint256"
            },
            {
              "internalType": "string",
              "name": "tournamentName",
              "type": "string"
            },
            {
              "internalType": "uint256",
              "name": "startTime",
              "type": "uint256"
            },
            {
              "internalType": "uint256",
              "name": "endTime",
              "type": "uint256"
            },
            {
              "internalType": "bool",
              "name": "isActive",
              "type": "bool"
            },
            {
              "internalType": "address[]",
              "name": "participants",
              "type": "address[]"
            },
            {
              "internalType": "uint256",
              "name": "totalMatches",
              "type": "uint256"
            }
          ],
          "internalType": "struct TournamentScores.Tournament",
          "name": "",
          "type": "tuple"
        }
      ],
      "stateMutability": "view",
      "type": "function"
    },
    {
      "inputs": [
        {
          "internalType": "uint256",
          "name": "_tournamentId",
          "type": "uint256"
        }
      ],
      "name": "getTournamentMatches",
      "outputs": [
        {
          "internalType": "uint256[]",
          "name": "",
          "type": "uint256[]"
        }
      ],
      "stateMutability": "view",
      "type": "function"
    },
    {
      "inputs": [
        {
          "internalType": "address",
          "name": "_player",
          "type": "address"
        }
      ],
      "name": "getPlayerMatches",
      "outputs": [
        {
          "internalType": "uint256[]",
          "name": "",
          "type": "uint256[]"
        }
      ],
      "stateMutability": "view",
      "type": "function"
    },
    {
      "inputs": [
        {
          "internalType": "address",
          "name": "_player",
          "type": "address"
        },
        {
          "internalType": "uint256",
          "name": "_tournamentId",
          "type": "uint256"
        }
      ],
      "name": "getPlayerTournamentScore",
      "outputs": [
        {
          "internalType": "uint256",
          "name": "",
          "type": "uint256"
        }
      ],
      "stateMutability": "view",
      "type": "function"
    },
    {
      "inputs": [
        {
          "internalType": "uint256",
          "name": "_tournamentId",
          "type": "uint256"
        }
      ],
      "name": "getTournamentParticipants",
      "outputs": [
        {
          "internalType": "address[]",
          "name": "",
          "type": "address[]"
        }
      ],
      "stateMutability": "view",
      "type": "function"
    },
    {
      "inputs": [
        {
          "internalType": "address",
          "name": "_newOwner",
          "type": "address"
        }
      ],
      "name": "transferOwnership",
      "outputs": [],
      "stateMutability": "nonpayable",
      "type": "function"
    }
  ],
  "bytecode": "0x608060405234801561000f575f80fd5b50335f806101000a81548173ffffffffffffffffffffffffffffffffffffffff021916908373ffffffffffffffffffffffffffffffffffffffff1602179055505f6001819055505f600281905550612eef8061006a5f395ff3fe608060405234801561000f575f80fd5b506004361061011f575f3560e01c806354113330116100ab578063aa3b47c01161006f578063aa3b47c014610388578063c2a8b11b146103a4578063d8c57e85146103d4578063da3605b314610404578063f2fde38b146104345761011f565b806354113330146102b757806373ed5c1c146102e75780637503e1b7146103055780637c4b35cf1461033a5780638da5cb5b1461036a5761011f565b806336345800116100f257806336345800146101bd5780633d092b3d146101ed5780633fbf92011461021d57806340a3ba241461024d5780634768d4ef1461027d5761011f565b806301fd19511461012357806318d85e53146101415780631a5bd7fc1461015d578063243f9db41461018d575b5f80fd5b61012b610450565b6040516101389190611cd7565b60405180910390f35b61015b60048036038101906101569190611d85565b610456565b005b61017760048036038101906101729190611dc3565b6106b1565b6040516101849190611ff8565b60405180910390f35b6101a760048036038101906101a29190612018565b61088a565b6040516101b49190611cd7565b60405180910390f35b6101d760048036038101906101d29190612182565b6108aa565b6040516101e49190611cd7565b60405180910390f35b61020760048036038101906102029190611dc3565b6109f7565b60405161021491906122bc565b60405180910390f35b610237600480360381019061023291906122dc565b610cdf565b6040516102449190611cd7565b60405180910390f35b61026760048036038101906102629190612018565b610d0a565b6040516102749190611cd7565b60405180910390f35b61029760048036038101906102929190611dc3565b610db2565b6040516102ae9b9a99989796959493929190612380565b60405180910390f35b6102d160048036038101906102cc9190612018565b610f7d565b6040516102de9190611cd7565b60405180910390f35b6102ef610fa8565b6040516102fc9190611cd7565b60405180910390f35b61031f600480360381019061031a9190611dc3565b610fae565b60405161033196959493929190612437565b60405180910390f35b610354600480360381019061034f919061249d565b611078565b6040516103619190612570565b60405180910390f35b61037261110b565b60405161037f9190612590565b60405180910390f35b6103a2600480360381019061039d9190611dc3565b61112e565b005b6103be60048036038101906103b99190611dc3565b6112ec565b6040516103cb9190612615565b60405180910390f35b6103ee60048036038101906103e99190611dc3565b6113dd565b6040516103fb9190612570565b60405180910390f35b61041e60048036038101906104199190612635565b611496565b60405161042b9190611cd7565b60405180910390f35b61044e6004803603810190610449919061249d565b611ab3565b005b60025481565b5f8054906101000a900473ffffffffffffffffffffffffffffffffffffffff1673ffffffffffffffffffffffffffffffffffffffff163373ffffffffffffffffffffffffffffffffffffffff16146104e3576040517f08c379a00000000000000000000000000000000000000000000000000000000081526004016104da9061277a565b60405180910390fd5b815f811180156104f557506001548111155b610534576040517f08c379a000000000000000000000000000000000000000000000000000000000815260040161052b906127e2565b60405180910390fd5b60035f8481526020019081526020015f206004015f9054906101000a900460ff16610594576040517f08c379a000000000000000000000000000000000000000000000000000000000815260040161058b9061284a565b60405180910390fd5b5f73ffffffffffffffffffffffffffffffffffffffff168273ffffffffffffffffffffffffffffffffffffffff1603610602576040517f08c379a00000000000000000000000000000000000000000000000000000000081526004016105f9906128b2565b60405180910390fd5b60035f8481526020019081526020015f2060050182908060018154018082558091505060019003905f5260205f20015f9091909190916101000a81548173ffffffffffffffffffffffffffffffffffffffff021916908373ffffffffffffffffffffffffffffffffffffffff160217905550827f12246ba2398106df92bc0281a1eece14e5b8516c5c3dab76205391650e39fddb836040516106a49190612590565b60405180910390a2505050565b6106b9611bf0565b815f811180156106cb57506001548111155b61070a576040517f08c379a0000000000000000000000000000000000000000000000000000000008152600401610701906127e2565b60405180910390fd5b60035f8481526020019081526020015f206040518060e00160405290815f820154815260200160018201805461073f906128fd565b80601f016020809104026020016040519081016040528092919081815260200182805461076b906128fd565b80156107b65780601f1061078d576101008083540402835291602001916107b6565b820191905f5260205f20905b81548152906001019060200180831161079957829003601f168201915b505050505081526020016002820154815260200160038201548152602001600482015f9054906101000a900460ff161515151581526020016005820180548060200260200160405190810160405280929190818152602001828054801561086f57602002820191905f5260205f20905b815f9054906101000a900473ffffffffffffffffffffffffffffffffffffffff1673ffffffffffffffffffffffffffffffffffffffff1681526020019060010190808311610826575b50505050508152602001600682015481525050915050919050565b6007602052815f5260405f20602052805f5260405f205f91509150505481565b5f805f9054906101000a900473ffffffffffffffffffffffffffffffffffffffff1673ffffffffffffffffffffffffffffffffffffffff163373ffffffffffffffffffffffffffffffffffffffff1614610939576040517f08c379a00000000000000000000000000000000000000000000000000000000081526004016109309061277a565b60405180910390fd5b60015f81548092919061094b9061295a565b91905055505f60035f60015481526020019081526020015f209050600154815f0181905550828160010190816109819190612b3e565b504281600201819055506001816004015f6101000a81548160ff0219169083151502179055505f81600601819055506001547f983e6525f727b8f3ae124cb8c190624755d938c5630ba271a8ab33fb5a81a8ce84426040516109e4929190612c0d565b60405180910390a2600154915050919050565b6109ff611c2a565b815f81118015610a1157506002548111155b610a50576040517f08c379a0000000000000000000000000000000000000000000000000000000008152600401610a4790612c85565b60405180910390fd5b60045f8481526020019081526020015f20604051806101600160405290815f820154815260200160018201548152602001600282015f9054906101000a900473ffffffffffffffffffffffffffffffffffffffff1673ffffffffffffffffffffffffffffffffffffffff1673ffffffffffffffffffffffffffffffffffffffff168152602001600382015f9054906101000a900473ffffffffffffffffffffffffffffffffffffffff1673ffffffffffffffffffffffffffffffffffffffff1673ffffffffffffffffffffffffffffffffffffffff168152602001600482018054610b3a906128fd565b80601f0160208091040260200160405190810160405280929190818152602001828054610b66906128fd565b8015610bb15780601f10610b8857610100808354040283529160200191610bb1565b820191905f5260205f20905b815481529060010190602001808311610b9457829003601f168201915b50505050508152602001600582018054610bca906128fd565b80601f0160208091040260200160405190810160405280929190818152602001828054610bf6906128fd565b8015610c415780601f10610c1857610100808354040283529160200191610c41565b820191905f5260205f20905b815481529060010190602001808311610c2457829003601f168201915b505050505081526020016006820154815260200160078201548152602001600882015f9054906101000a900473ffffffffffffffffffffffffffffffffffffffff1673ffffffffffffffffffffffffffffffffffffffff1673ffffffffffffffffffffffffffffffffffffffff16815260200160098201548152602001600a82015f9054906101000a900460ff161515151581525050915050919050565b6005602052815f5260405f208181548110610cf8575f80fd5b905f5260205f20015f91509150505481565b5f815f81118015610d1d57506001548111155b610d5c576040517f08c379a0000000000000000000000000000000000000000000000000000000008152600401610d53906127e2565b60405180910390fd5b60075f8573ffffffffffffffffffffffffffffffffffffffff1673ffffffffffffffffffffffffffffffffffffffff1681526020019081526020015f205f8481526020019081526020015f205491505092915050565b6004602052805f5260405f205f91509050805f015490806001015490806002015f9054906101000a900473ffffffffffffffffffffffffffffffffffffffff1690806003015f9054906101000a900473ffffffffffffffffffffffffffffffffffffffff1690806004018054610e27906128fd565b80601f0160208091040260200160405190810160405280929190818152602001828054610e53906128fd565b8015610e9e5780601f10610e7557610100808354040283529160200191610e9e565b820191905f5260205f20905b815481529060010190602001808311610e8157829003601f168201915b505050505090806005018054610eb3906128fd565b80601f0160208091040260200160405190810160405280929190818152602001828054610edf906128fd565b8015610f2a5780601f10610f0157610100808354040283529160200191610f2a565b820191905f5260205f20905b815481529060010190602001808311610f0d57829003601f168201915b505050505090806006015490806007015490806008015f9054906101000a900473ffffffffffffffffffffffffffffffffffffffff169080600901549080600a015f9054906101000a900460ff1690508b565b6006602052815f5260405f208181548110610f96575f80fd5b905f5260205f20015f91509150505481565b60015481565b6003602052805f5260405f205f91509050805f015490806001018054610fd3906128fd565b80601f0160208091040260200160405190810160405280929190818152602001828054610fff906128fd565b801561104a5780601f106110215761010080835404028352916020019161104a565b820191905f5260205f20905b81548152906001019060200180831161102d57829003601f168201915b505050505090806002015490806003015490806004015f9054906101000a900460ff16908060060154905086565b606060065f8373ffffffffffffffffffffffffffffffffffffffff1673ffffffffffffffffffffffffffffffffffffffff1681526020019081526020015f208054806020026020016040519081016040528092919081815260200182805480156110ff57602002820191905f5260205f20905b8154815260200190600101908083116110eb575b50505050509050919050565b5f8054906101000a900473ffffffffffffffffffffffffffffffffffffffff1681565b5f8054906101000a900473ffffffffffffffffffffffffffffffffffffffff1673ffffffffffffffffffffffffffffffffffffffff163373ffffffffffffffffffffffffffffffffffffffff16146111bb576040517f08c379a00000000000000000000000000000000000000000000000000000000081526004016111b29061277a565b60405180910390fd5b805f811180156111cd57506001548111155b61120c576040517f08c379a0000000000000000000000000000000000000000000000000000000008152600401611203906127e2565b60405180910390fd5b60035f8381526020019081526020015f206004015f9054906101000a900460ff1661126c576040517f08c379a000000000000000000000000000000000000000000000000000000000815260040161126390612ced565b60405180910390fd5b5f60035f8481526020019081526020015f206004015f6101000a81548160ff0219169083151502179055504260035f8481526020019081526020015f2060030181905550817f807dbf27de9298b64d17f9338504ff1b1eaa8e96cbf4c3fa8bfbc09fa4a092de426040516112e09190611cd7565b60405180910390a25050565b6060815f8111801561130057506001548111155b61133f576040517f08c379a0000000000000000000000000000000000000000000000000000000008152600401611336906127e2565b60405180910390fd5b60035f8481526020019081526020015f206005018054806020026020016040519081016040528092919081815260200182805480156113d057602002820191905f5260205f20905b815f9054906101000a900473ffffffffffffffffffffffffffffffffffffffff1673ffffffffffffffffffffffffffffffffffffffff1681526020019060010190808311611387575b5050505050915050919050565b6060815f811180156113f157506001548111155b611430576040517f08c379a0000000000000000000000000000000000000000000000000000000008152600401611427906127e2565b60405180910390fd5b60055f8481526020019081526020015f2080548060200260200160405190810160405280929190818152602001828054801561148957602002820191905f5260205f20905b815481526020019060010190808311611475575b5050505050915050919050565b5f805f9054906101000a900473ffffffffffffffffffffffffffffffffffffffff1673ffffffffffffffffffffffffffffffffffffffff163373ffffffffffffffffffffffffffffffffffffffff1614611525576040517f08c379a000000000000000000000000000000000000000000000000000000000815260040161151c9061277a565b60405180910390fd5b875f8111801561153757506001548111155b611576576040517f08c379a000000000000000000000000000000000000000000000000000000000815260040161156d906127e2565b60405180910390fd5b60035f8a81526020019081526020015f206004015f9054906101000a900460ff166115d6576040517f08c379a00000000000000000000000000000000000000000000000000000000081526004016115cd9061284a565b60405180910390fd5b5f73ffffffffffffffffffffffffffffffffffffffff168873ffffffffffffffffffffffffffffffffffffffff161415801561163e57505f73ffffffffffffffffffffffffffffffffffffffff168773ffffffffffffffffffffffffffffffffffffffff1614155b61167d576040517f08c379a000000000000000000000000000000000000000000000000000000000815260040161167490612d55565b60405180910390fd5b8673ffffffffffffffffffffffffffffffffffffffff168873ffffffffffffffffffffffffffffffffffffffff16036116eb576040517f08c379a00000000000000000000000000000000000000000000000000000000081526004016116e290612dbd565b60405180910390fd5b60025f8154809291906116fd9061295a565b91905055505f8385116117105787611712565b885b90505f60045f60025481526020019081526020015f209050600254815f01819055508a816001018190555089816002015f6101000a81548173ffffffffffffffffffffffffffffffffffffffff021916908373ffffffffffffffffffffffffffffffffffffffff16021790555088816003015f6101000a81548173ffffffffffffffffffffffffffffffffffffffff021916908373ffffffffffffffffffffffffffffffffffffffff160217905550878160040190816117d29190612b3e565b50868160050190816117e49190612b3e565b5085816006018190555084816007018190555081816008015f6101000a81548173ffffffffffffffffffffffffffffffffffffffff021916908373ffffffffffffffffffffffffffffffffffffffff160217905550428160090181905550600181600a015f6101000a81548160ff02191690831515021790555060055f8c81526020019081526020015f20600254908060018154018082558091505060019003905f5260205f20015f909190919091505560065f8b73ffffffffffffffffffffffffffffffffffffffff1673ffffffffffffffffffffffffffffffffffffffff1681526020019081526020015f20600254908060018154018082558091505060019003905f5260205f20015f909190919091505560065f8a73ffffffffffffffffffffffffffffffffffffffff1673ffffffffffffffffffffffffffffffffffffffff1681526020019081526020015f20600254908060018154018082558091505060019003905f5260205f20015f90919091909150558560075f8c73ffffffffffffffffffffffffffffffffffffffff1673ffffffffffffffffffffffffffffffffffffffff1681526020019081526020015f205f8d81526020019081526020015f205f8282546119b69190612ddb565b925050819055508460075f8b73ffffffffffffffffffffffffffffffffffffffff1673ffffffffffffffffffffffffffffffffffffffff1681526020019081526020015f205f8d81526020019081526020015f205f828254611a189190612ddb565b9250508190555060035f8c81526020019081526020015f206006015f815480929190611a439061295a565b91905055508173ffffffffffffffffffffffffffffffffffffffff168b6002547f8c548b6e6da9c97b9fa13668d64f03fdd0f5059ce7f11d70b4fecad09c60ea188d8d8b8b604051611a989493929190612e0e565b60405180910390a46002549350505050979650505050505050565b5f8054906101000a900473ffffffffffffffffffffffffffffffffffffffff1673ffffffffffffffffffffffffffffffffffffffff163373ffffffffffffffffffffffffffffffffffffffff1614611b40576040517f08c379a0000000000000000000000000000000000000000000000000000000008152600401611b379061277a565b60405180910390fd5b5f73ffffffffffffffffffffffffffffffffffffffff168173ffffffffffffffffffffffffffffffffffffffff1603611bae576040517f08c379a0000000000000000000000000000000000000000000000000000000008152600401611ba590612e9b565b60405180910390fd5b805f806101000a81548173ffffffffffffffffffffffffffffffffffffffff021916908373ffffffffffffffffffffffffffffffffffffffff16021790555050565b6040518060e001604052805f8152602001606081526020015f81526020015f81526020015f15158152602001606081526020015f81525090565b6040518061016001604052805f81526020015f81526020015f73ffffffffffffffffffffffffffffffffffffffff1681526020015f73ffffffffffffffffffffffffffffffffffffffff16815260200160608152602001606081526020015f81526020015f81526020015f73ffffffffffffffffffffffffffffffffffffffff1681526020015f81526020015f151581525090565b5f819050919050565b611cd181611cbf565b82525050565b5f602082019050611cea5f830184611cc8565b92915050565b5f604051905090565b5f80fd5b5f80fd5b611d0a81611cbf565b8114611d14575f80fd5b50565b5f81359050611d2581611d01565b92915050565b5f73ffffffffffffffffffffffffffffffffffffffff82169050919050565b5f611d5482611d2b565b9050919050565b611d6481611d4a565b8114611d6e575f80fd5b50565b5f81359050611d7f81611d5b565b92915050565b5f8060408385031215611d9b57611d9a611cf9565b5b5f611da885828601611d17565b9250506020611db985828601611d71565b9150509250929050565b5f60208284031215611dd857611dd7611cf9565b5b5f611de584828501611d17565b91505092915050565b611df781611cbf565b82525050565b5f81519050919050565b5f82825260208201905092915050565b5f5b83811015611e34578082015181840152602081019050611e19565b5f8484015250505050565b5f601f19601f8301169050919050565b5f611e5982611dfd565b611e638185611e07565b9350611e73818560208601611e17565b611e7c81611e3f565b840191505092915050565b5f8115159050919050565b611e9b81611e87565b82525050565b5f81519050919050565b5f82825260208201905092915050565b5f819050602082019050919050565b611ed381611d4a565b82525050565b5f611ee48383611eca565b60208301905092915050565b5f602082019050919050565b5f611f0682611ea1565b611f108185611eab565b9350611f1b83611ebb565b805f5b83811015611f4b578151611f328882611ed9565b9750611f3d83611ef0565b925050600181019050611f1e565b5085935050505092915050565b5f60e083015f830151611f6d5f860182611dee565b5060208301518482036020860152611f858282611e4f565b9150506040830151611f9a6040860182611dee565b506060830151611fad6060860182611dee565b506080830151611fc06080860182611e92565b5060a083015184820360a0860152611fd88282611efc565b91505060c0830151611fed60c0860182611dee565b508091505092915050565b5f6020820190508181035f8301526120108184611f58565b905092915050565b5f806040838503121561202e5761202d611cf9565b5b5f61203b85828601611d71565b925050602061204c85828601611d17565b9150509250929050565b5f80fd5b5f80fd5b7f4e487b71000000000000000000000000000000000000000000000000000000005f52604160045260245ffd5b61209482611e3f565b810181811067ffffffffffffffff821117156120b3576120b261205e565b5b80604052505050565b5f6120c5611cf0565b90506120d1828261208b565b919050565b5f67ffffffffffffffff8211156120f0576120ef61205e565b5b6120f982611e3f565b9050602081019050919050565b828183375f83830152505050565b5f612126612121846120d6565b6120bc565b9050828152602081018484840111156121425761214161205a565b5b61214d848285612106565b509392505050565b5f82601f83011261216957612168612056565b5b8135612179848260208601612114565b91505092915050565b5f6020828403121561219757612196611cf9565b5b5f82013567ffffffffffffffff8111156121b4576121b3611cfd565b5b6121c084828501612155565b91505092915050565b5f61016083015f8301516121df5f860182611dee565b5060208301516121f26020860182611dee565b5060408301516122056040860182611eca565b5060608301516122186060860182611eca565b50608083015184820360808601526122308282611e4f565b91505060a083015184820360a086015261224a8282611e4f565b91505060c083015161225f60c0860182611dee565b5060e083015161227260e0860182611dee565b50610100830151612287610100860182611eca565b5061012083015161229c610120860182611dee565b506101408301516122b1610140860182611e92565b508091505092915050565b5f6020820190508181035f8301526122d481846121c9565b905092915050565b5f80604083850312156122f2576122f1611cf9565b5b5f6122ff85828601611d17565b925050602061231085828601611d17565b9150509250929050565b61232381611d4a565b82525050565b5f82825260208201905092915050565b5f61234382611dfd565b61234d8185612329565b935061235d818560208601611e17565b61236681611e3f565b840191505092915050565b61237a81611e87565b82525050565b5f610160820190506123945f83018e611cc8565b6123a1602083018d611cc8565b6123ae604083018c61231a565b6123bb606083018b61231a565b81810360808301526123cd818a612339565b905081810360a08301526123e18189612339565b90506123f060c0830188611cc8565b6123fd60e0830187611cc8565b61240b61010083018661231a565b612419610120830185611cc8565b612427610140830184612371565b9c9b505050505050505050505050565b5f60c08201905061244a5f830189611cc8565b818103602083015261245c8188612339565b905061246b6040830187611cc8565b6124786060830186611cc8565b6124856080830185612371565b61249260a0830184611cc8565b979650505050505050565b5f602082840312156124b2576124b1611cf9565b5b5f6124bf84828501611d71565b91505092915050565b5f81519050919050565b5f82825260208201905092915050565b5f819050602082019050919050565b5f6124fc8383611dee565b60208301905092915050565b5f602082019050919050565b5f61251e826124c8565b61252881856124d2565b9350612533836124e2565b805f5b8381101561256357815161254a88826124f1565b975061255583612508565b925050600181019050612536565b5085935050505092915050565b5f6020820190508181035f8301526125888184612514565b905092915050565b5f6020820190506125a35f83018461231a565b92915050565b5f82825260208201905092915050565b5f6125c382611ea1565b6125cd81856125a9565b93506125d883611ebb565b805f5b838110156126085781516125ef8882611ed9565b97506125fa83611ef0565b9250506001810190506125db565b5085935050505092915050565b5f6020820190508181035f83015261262d81846125b9565b905092915050565b5f805f805f805f60e0888a0312156126505761264f611cf9565b5b5f61265d8a828b01611d17565b975050602061266e8a828b01611d71565b965050604061267f8a828b01611d71565b955050606088013567ffffffffffffffff8111156126a05761269f611cfd565b5b6126ac8a828b01612155565b945050608088013567ffffffffffffffff8111156126cd576126cc611cfd565b5b6126d98a828b01612155565b93505060a06126ea8a828b01611d17565b92505060c06126fb8a828b01611d17565b91505092959891949750929550565b7f4f6e6c79206f776e65722063616e2063616c6c20746869732066756e6374696f5f8201527f6e00000000000000000000000000000000000000000000000000000000000000602082015250565b5f612764602183612329565b915061276f8261270a565b604082019050919050565b5f6020820190508181035f83015261279181612758565b9050919050565b7f546f75726e616d656e7420646f6573206e6f74206578697374000000000000005f82015250565b5f6127cc601983612329565b91506127d782612798565b602082019050919050565b5f6020820190508181035f8301526127f9816127c0565b9050919050565b7f546f75726e616d656e74206973206e6f742061637469766500000000000000005f82015250565b5f612834601883612329565b915061283f82612800565b602082019050919050565b5f6020820190508181035f83015261286181612828565b9050919050565b7f496e76616c6964207061727469636970616e74206164647265737300000000005f82015250565b5f61289c601b83612329565b91506128a782612868565b602082019050919050565b5f6020820190508181035f8301526128c981612890565b9050919050565b7f4e487b71000000000000000000000000000000000000000000000000000000005f52602260045260245ffd5b5f600282049050600182168061291457607f821691505b602082108103612927576129266128d0565b5b50919050565b7f4e487b71000000000000000000000000000000000000000000000000000000005f52601160045260245ffd5b5f61296482611cbf565b91507fffffffffffffffffffffffffffffffffffffffffffffffffffffffffffffffff82036129965761299561292d565b5b600182019050919050565b5f819050815f5260205f209050919050565b5f6020601f8301049050919050565b5f82821b905092915050565b5f600883026129fd7fffffffffffffffffffffffffffffffffffffffffffffffffffffffffffffffff826129c2565b612a0786836129c2565b95508019841693508086168417925050509392505050565b5f819050919050565b5f612a42612a3d612a3884611cbf565b612a1f565b611cbf565b9050919050565b5f819050919050565b612a5b83612a28565b612a6f612a6782612a49565b8484546129ce565b825550505050565b5f90565b612a83612a77565b612a8e818484612a52565b505050565b5b81811015612ab157612aa65f82612a7b565b600181019050612a94565b5050565b601f821115612af657612ac7816129a1565b612ad0846129b3565b81016020851015612adf578190505b612af3612aeb856129b3565b830182612a93565b50505b505050565b5f82821c905092915050565b5f612b165f1984600802612afb565b1980831691505092915050565b5f612b2e8383612b07565b9150826002028217905092915050565b612b4782611dfd565b67ffffffffffffffff811115612b6057612b5f61205e565b5b612b6a82546128fd565b612b75828285612ab5565b5f60209050601f831160018114612ba6575f8415612b94578287015190505b612b9e8582612b23565b865550612c05565b601f198416612bb4866129a1565b5f5b82811015612bdb57848901518255600182019150602085019450602081019050612bb6565b86831015612bf85784890151612bf4601f891682612b07565b8355505b6001600288020188555050505b505050505050565b5f6040820190508181035f830152612c258185612339565b9050612c346020830184611cc8565b9392505050565b7f4d6174636820646f6573206e6f742065786973740000000000000000000000005f82015250565b5f612c6f601483612329565b9150612c7a82612c3b565b602082019050919050565b5f6020820190508181035f830152612c9c81612c63565b9050919050565b7f546f75726e616d656e7420616c726561647920656e64656400000000000000005f82015250565b5f612cd7601883612329565b9150612ce282612ca3565b602082019050919050565b5f6020820190508181035f830152612d0481612ccb565b9050919050565b7f496e76616c696420706c617965722061646472657373657300000000000000005f82015250565b5f612d3f601883612329565b9150612d4a82612d0b565b602082019050919050565b5f6020820190508181035f830152612d6c81612d33565b9050919050565b7f506c6179657273206d75737420626520646966666572656e74000000000000005f82015250565b5f612da7601983612329565b9150612db282612d73565b602082019050919050565b5f6020820190508181035f830152612dd481612d9b565b9050919050565b5f612de582611cbf565b9150612df083611cbf565b9250828201905080821115612e0857612e0761292d565b5b92915050565b5f608082019050612e215f83018761231a565b612e2e602083018661231a565b612e3b6040830185611cc8565b612e486060830184611cc8565b95945050505050565b7f496e76616c6964206164647265737300000000000000000000000000000000005f82015250565b5f612e85600f83612329565b9150612e9082612e51565b602082019050919050565b5f6020820190508181035f830152612eb281612e79565b905091905056fea2646970667358221220688e6bf22b0626b6631159942f5f5fb5c4d5d4b23114f1e505b0ff42db1ea32764736f6c63430008150033",
  "immutableReferences": {},
  "source": "// SPDX-License-Identifier: MIT\r\npragma solidity ^0.8.21;\r\n\r\n/**\r\n * @title TournamentScores\r\n * @dev Smart contract to record, manage, and retrieve tournament scores on Avalanche\r\n * Ensures data integrity and immutability for tournament results\r\n */\r\ncontract TournamentScores {\r\n    \r\n    // Struct to represent a match result\r\n    struct Match {\r\n        uint256 matchId;\r\n        uint256 tournamentId;\r\n        address player1;\r\n        address player2;\r\n        string player1Name;\r\n        string player2Name;\r\n        uint256 player1Score;\r\n        uint256 player2Score;\r\n        address winner;\r\n        uint256 timestamp;\r\n        bool isFinalized;\r\n    }\r\n    \r\n    // Struct to represent a tournament\r\n    struct Tournament {\r\n        uint256 tournamentId;\r\n        string tournamentName;\r\n        uint256 startTime;\r\n        uint256 endTime;\r\n        bool isActive;\r\n        address[] participants;\r\n        uint256 totalMatches;\r\n    }\r\n    \r\n    // State variables\r\n    address public owner;\r\n    uint256 public tournamentCounter;\r\n    uint256 public matchCounter;\r\n    \r\n    // Mappings\r\n    mapping(uint256 => Tournament) public tournaments;\r\n    mapping(uint256 => Match) public matches;\r\n    mapping(uint256 => uint256[]) public tournamentMatches; // tournamentId => matchIds\r\n    mapping(address => uint256[]) public playerMatches; // player address => matchIds\r\n    mapping(address => mapping(uint256 => uint256)) public playerTournamentScore; // player => tournamentId => total score\r\n    \r\n    // Events\r\n    event TournamentCreated(uint256 indexed tournamentId, string name, uint256 startTime);\r\n    event TournamentEnded(uint256 indexed tournamentId, uint256 endTime);\r\n    event MatchRecorded(\r\n        uint256 indexed matchId,\r\n        uint256 indexed tournamentId,\r\n        address indexed winner,\r\n        address player1,\r\n        address player2,\r\n        uint256 player1Score,\r\n        uint256 player2Score\r\n    );\r\n    event ParticipantAdded(uint256 indexed tournamentId, address participant);\r\n    \r\n    // Modifiers\r\n    modifier onlyOwner() {\r\n        require(msg.sender == owner, \"Only owner can call this function\");\r\n        _;\r\n    }\r\n    \r\n    modifier tournamentExists(uint256 _tournamentId) {\r\n        require(_tournamentId > 0 && _tournamentId <= tournamentCounter, \"Tournament does not exist\");\r\n        _;\r\n    }\r\n    \r\n    modifier matchExists(uint256 _matchId) {\r\n        require(_matchId > 0 && _matchId <= matchCounter, \"Match does not exist\");\r\n        _;\r\n    }\r\n    \r\n    constructor() {\r\n        owner = msg.sender;\r\n        tournamentCounter = 0;\r\n        matchCounter = 0;\r\n    }\r\n    \r\n    /**\r\n     * @dev Create a new tournament\r\n     * @param _name Tournament name\r\n     * @return tournamentId The ID of the created tournament\r\n     */\r\n    function createTournament(string memory _name) public onlyOwner returns (uint256) {\r\n        tournamentCounter++;\r\n        \r\n        Tournament storage newTournament = tournaments[tournamentCounter];\r\n        newTournament.tournamentId = tournamentCounter;\r\n        newTournament.tournamentName = _name;\r\n        newTournament.startTime = block.timestamp;\r\n        newTournament.isActive = true;\r\n        newTournament.totalMatches = 0;\r\n        \r\n        emit TournamentCreated(tournamentCounter, _name, block.timestamp);\r\n        \r\n        return tournamentCounter;\r\n    }\r\n    \r\n    /**\r\n     * @dev Add a participant to a tournament\r\n     * @param _tournamentId Tournament ID\r\n     * @param _participant Participant address\r\n     */\r\n    function addParticipant(uint256 _tournamentId, address _participant) \r\n        public \r\n        onlyOwner \r\n        tournamentExists(_tournamentId) \r\n    {\r\n        require(tournaments[_tournamentId].isActive, \"Tournament is not active\");\r\n        require(_participant != address(0), \"Invalid participant address\");\r\n        \r\n        tournaments[_tournamentId].participants.push(_participant);\r\n        \r\n        emit ParticipantAdded(_tournamentId, _participant);\r\n    }\r\n    \r\n    /**\r\n     * @dev Record a match result\r\n     * @param _tournamentId Tournament ID\r\n     * @param _player1 Player 1 address\r\n     * @param _player2 Player 2 address\r\n     * @param _player1Name Player 1 username\r\n     * @param _player2Name Player 2 username\r\n     * @param _player1Score Player 1 score\r\n     * @param _player2Score Player 2 score\r\n     * @return matchId The ID of the recorded match\r\n     */\r\n    function recordMatch(\r\n        uint256 _tournamentId,\r\n        address _player1,\r\n        address _player2,\r\n        string memory _player1Name,\r\n        string memory _player2Name,\r\n        uint256 _player1Score,\r\n        uint256 _player2Score\r\n    ) public onlyOwner tournamentExists(_tournamentId) returns (uint256) {\r\n        require(tournaments[_tournamentId].isActive, \"Tournament is not active\");\r\n        require(_player1 != address(0) && _player2 != address(0), \"Invalid player addresses\");\r\n        require(_player1 != _player2, \"Players must be different\");\r\n        \r\n        matchCounter++;\r\n        \r\n        // Determine winner\r\n        address winner = _player1Score > _player2Score ? _player1 : _player2;\r\n        \r\n        // Create match record\r\n        Match storage newMatch = matches[matchCounter];\r\n        newMatch.matchId = matchCounter;\r\n        newMatch.tournamentId = _tournamentId;\r\n        newMatch.player1 = _player1;\r\n        newMatch.player2 = _player2;\r\n        newMatch.player1Name = _player1Name;\r\n        newMatch.player2Name = _player2Name;\r\n        newMatch.player1Score = _player1Score;\r\n        newMatch.player2Score = _player2Score;\r\n        newMatch.winner = winner;\r\n        newMatch.timestamp = block.timestamp;\r\n        newMatch.isFinalized = true;\r\n        \r\n        // Update mappings\r\n        tournamentMatches[_tournamentId].push(matchCounter);\r\n        playerMatches[_player1].push(matchCounter);\r\n        playerMatches[_player2].push(matchCounter);\r\n        \r\n        // Update tournament scores\r\n        playerTournamentScore[_player1][_tournamentId] += _player1Score;\r\n        playerTournamentScore[_player2][_tournamentId] += _player2Score;\r\n        \r\n        // Update tournament\r\n        tournaments[_tournamentId].totalMatches++;\r\n        \r\n        emit MatchRecorded(\r\n            matchCounter,\r\n            _tournamentId,\r\n            winner,\r\n            _player1,\r\n            _player2,\r\n            _player1Score,\r\n            _player2Score\r\n        );\r\n        \r\n        return matchCounter;\r\n    }\r\n    \r\n    /**\r\n     * @dev End a tournament\r\n     * @param _tournamentId Tournament ID\r\n     */\r\n    function endTournament(uint256 _tournamentId) \r\n        public \r\n        onlyOwner \r\n        tournamentExists(_tournamentId) \r\n    {\r\n        require(tournaments[_tournamentId].isActive, \"Tournament already ended\");\r\n        \r\n        tournaments[_tournamentId].isActive = false;\r\n        tournaments[_tournamentId].endTime = block.timestamp;\r\n        \r\n        emit TournamentEnded(_tournamentId, block.timestamp);\r\n    }\r\n    \r\n    /**\r\n     * @dev Get match details\r\n     * @param _matchId Match ID\r\n     * @return Match details\r\n     */\r\n    function getMatch(uint256 _matchId) \r\n        public \r\n        view \r\n        matchExists(_matchId) \r\n        returns (Match memory) \r\n    {\r\n        return matches[_matchId];\r\n    }\r\n    \r\n    /**\r\n     * @dev Get tournament details\r\n     * @param _tournamentId Tournament ID\r\n     * @return Tournament details\r\n     */\r\n    function getTournament(uint256 _tournamentId) \r\n        public \r\n        view \r\n        tournamentExists(_tournamentId) \r\n        returns (Tournament memory) \r\n    {\r\n        return tournaments[_tournamentId];\r\n    }\r\n    \r\n    /**\r\n     * @dev Get all matches in a tournament\r\n     * @param _tournamentId Tournament ID\r\n     * @return Array of match IDs\r\n     */\r\n    function getTournamentMatches(uint256 _tournamentId) \r\n        public \r\n        view \r\n        tournamentExists(_tournamentId) \r\n        returns (uint256[] memory) \r\n    {\r\n        return tournamentMatches[_tournamentId];\r\n    }\r\n    \r\n    /**\r\n     * @dev Get all matches for a player\r\n     * @param _player Player address\r\n     * @return Array of match IDs\r\n     */\r\n    function getPlayerMatches(address _player) \r\n        public \r\n        view \r\n        returns (uint256[] memory) \r\n    {\r\n        return playerMatches[_player];\r\n    }\r\n    \r\n    /**\r\n     * @dev Get player's total score in a tournament\r\n     * @param _player Player address\r\n     * @param _tournamentId Tournament ID\r\n     * @return Total score\r\n     */\r\n    function getPlayerTournamentScore(address _player, uint256 _tournamentId) \r\n        public \r\n        view \r\n        tournamentExists(_tournamentId) \r\n        returns (uint256) \r\n    {\r\n        return playerTournamentScore[_player][_tournamentId];\r\n    }\r\n    \r\n    /**\r\n     * @dev Get tournament participants\r\n     * @param _tournamentId Tournament ID\r\n     * @return Array of participant addresses\r\n     */\r\n    function getTournamentParticipants(uint256 _tournamentId) \r\n        public \r\n        view \r\n        tournamentExists(_tournamentId) \r\n        returns (address[] memory) \r\n    {\r\n        return tournaments[_tournamentId].participants;\r\n    }\r\n    \r\n    /**\r\n     * @dev Transfer ownership\r\n     * @param _newOwner New owner address\r\n     */\r\n    function transferOwnership(address _newOwner) public onlyOwner {\r\n        require(_newOwner != address(0), \"Invalid address\");\r\n        owner = _newOwner;\r\n    }\r\n}\r\n",
  "sourcePath": "C:\\Users\\jesus\\Desktop\\ft_transcendencer\\database\\blokchain\\contracts\\TournamentScores.sol",
  "compiler": {
    "name": "solc",
    "version": "0.8.21+commit.d9974bed.Emscripten.clang"
  },
  "schemaVersion": "3.4.16",
  "updatedAt": "2025-12-09T12:20:55.643Z",
  "devdoc": {
    "details": "Smart contract to record, manage, and retrieve tournament scores on Avalanche Ensures data integrity and immutability for tournament results",
    "kind": "dev",
    "methods": {
      "addParticipant(uint256,address)": {
        "details": "Add a participant to a tournament",
        "params": {
          "_participant": "Participant address",
          "_tournamentId": "Tournament ID"
        }
      },
      "createTournament(string)": {
        "details": "Create a new tournament",
        "params": {
          "_name": "Tournament name"
        },
        "returns": {
          "_0": "tournamentId The ID of the created tournament"
        }
      },
      "endTournament(uint256)": {
        "details": "End a tournament",
        "params": {
          "_tournamentId": "Tournament ID"
        }
      },
      "getMatch(uint256)": {
        "details": "Get match details",
        "params": {
          "_matchId": "Match ID"
        },
        "returns": {
          "_0": "Match details"
        }
      },
      "getPlayerMatches(address)": {
        "details": "Get all matches for a player",
        "params": {
          "_player": "Player address"
        },
        "returns": {
          "_0": "Array of match IDs"
        }
      },
      "getPlayerTournamentScore(address,uint256)": {
        "details": "Get player's total score in a tournament",
        "params": {
          "_player": "Player address",
          "_tournamentId": "Tournament ID"
        },
        "returns": {
          "_0": "Total score"
        }
      },
      "getTournament(uint256)": {
        "details": "Get tournament details",
        "params": {
          "_tournamentId": "Tournament ID"
        },
        "returns": {
          "_0": "Tournament details"
        }
      },
      "getTournamentMatches(uint256)": {
        "details": "Get all matches in a tournament",
        "params": {
          "_tournamentId": "Tournament ID"
        },
        "returns": {
          "_0": "Array of match IDs"
        }
      },
      "getTournamentParticipants(uint256)": {
        "details": "Get tournament participants",
        "params": {
          "_tournamentId": "Tournament ID"
        },
        "returns": {
          "_0": "Array of participant addresses"
        }
      },
      "recordMatch(uint256,address,address,string,string,uint256,uint256)": {
        "details": "Record a match result",
        "params": {
          "_player1": "Player 1 address",
          "_player1Name": "Player 1 username",
          "_player1Score": "Player 1 score",
          "_player2": "Player 2 address",
          "_player2Name": "Player 2 username",
          "_player2Score": "Player 2 score",
          "_tournamentId": "Tournament ID"
        },
        "returns": {
          "_0": "matchId The ID of the recorded match"
        }
      },
      "transferOwnership(address)": {
        "details": "Transfer ownership",
        "params": {
          "_newOwner": "New owner address"
        }
      }
    },
    "title": "TournamentScores",
    "version": 1
  },
  "userdoc": {
    "kind": "user",
    "methods": {},
    "version": 1
  }
}